{
  "contractName": "Medical",
  "abi": [
    {
      "inputs": [],
      "stateMutability": "nonpayable",
      "type": "constructor"
    },
    {
      "anonymous": false,
      "inputs": [
        {
          "indexed": false,
          "internalType": "uint256",
          "name": "",
          "type": "uint256"
        },
        {
          "indexed": false,
          "internalType": "string",
          "name": "",
          "type": "string"
        }
      ],
      "name": "regid",
      "type": "event"
    },
    {
      "anonymous": false,
      "inputs": [
        {
          "indexed": false,
          "internalType": "uint256",
          "name": "",
          "type": "uint256"
        },
        {
          "indexed": false,
          "internalType": "string",
          "name": "",
          "type": "string"
        },
        {
          "indexed": false,
          "internalType": "uint256",
          "name": "",
          "type": "uint256"
        }
      ],
      "name": "regpat_id",
      "type": "event"
    },
    {
      "inputs": [
        {
          "internalType": "address",
          "name": "admin",
          "type": "address"
        }
      ],
      "name": "setnewAdmin",
      "outputs": [],
      "stateMutability": "nonpayable",
      "type": "function"
    },
    {
      "inputs": [
        {
          "internalType": "string",
          "name": "name",
          "type": "string"
        },
        {
          "internalType": "string",
          "name": "_gender",
          "type": "string"
        },
        {
          "internalType": "string",
          "name": "_category",
          "type": "string"
        },
        {
          "internalType": "string",
          "name": "post",
          "type": "string"
        },
        {
          "internalType": "string",
          "name": "discipline",
          "type": "string"
        },
        {
          "internalType": "string",
          "name": "stateCouncil",
          "type": "string"
        }
      ],
      "name": "Regdoc",
      "outputs": [
        {
          "internalType": "uint256",
          "name": "",
          "type": "uint256"
        }
      ],
      "stateMutability": "nonpayable",
      "type": "function"
    },
    {
      "inputs": [
        {
          "internalType": "bool",
          "name": "_verifedStatus",
          "type": "bool"
        },
        {
          "internalType": "uint256",
          "name": "id",
          "type": "uint256"
        }
      ],
      "name": "verifyDoctor",
      "outputs": [],
      "stateMutability": "nonpayable",
      "type": "function"
    },
    {
      "inputs": [
        {
          "internalType": "uint256",
          "name": "id",
          "type": "uint256"
        }
      ],
      "name": "getDoc",
      "outputs": [
        {
          "components": [
            {
              "internalType": "uint256",
              "name": "id",
              "type": "uint256"
            },
            {
              "internalType": "string",
              "name": "name",
              "type": "string"
            },
            {
              "internalType": "string",
              "name": "_gender",
              "type": "string"
            },
            {
              "internalType": "string",
              "name": "_category",
              "type": "string"
            },
            {
              "internalType": "string",
              "name": "post",
              "type": "string"
            },
            {
              "internalType": "string",
              "name": "discipline",
              "type": "string"
            },
            {
              "internalType": "string",
              "name": "stateCouncil",
              "type": "string"
            },
            {
              "internalType": "bool",
              "name": "isVerified",
              "type": "bool"
            }
          ],
          "internalType": "struct Medical.RegDoc",
          "name": "",
          "type": "tuple"
        }
      ],
      "stateMutability": "view",
      "type": "function",
      "constant": true
    },
    {
      "inputs": [
        {
          "internalType": "uint256",
          "name": "id",
          "type": "uint256"
        },
        {
          "internalType": "string",
          "name": "password",
          "type": "string"
        }
      ],
      "name": "setpassword",
      "outputs": [],
      "stateMutability": "nonpayable",
      "type": "function"
    },
    {
      "inputs": [
        {
          "internalType": "string",
          "name": "name",
          "type": "string"
        },
        {
          "internalType": "string",
          "name": "_gender",
          "type": "string"
        },
        {
          "internalType": "uint256",
          "name": "dob",
          "type": "uint256"
        },
        {
          "internalType": "uint256",
          "name": "age",
          "type": "uint256"
        },
        {
          "internalType": "string",
          "name": "blood",
          "type": "string"
        }
      ],
      "name": "Regpatit",
      "outputs": [],
      "stateMutability": "nonpayable",
      "type": "function"
    },
    {
      "inputs": [
        {
          "internalType": "uint256",
          "name": "patientid",
          "type": "uint256"
        },
        {
          "internalType": "uint256",
          "name": "docid",
          "type": "uint256"
        },
        {
          "internalType": "string",
          "name": "name0fdise",
          "type": "string"
        },
        {
          "internalType": "string",
          "name": "others",
          "type": "string"
        },
        {
          "internalType": "string",
          "name": "medicine",
          "type": "string"
        }
      ],
      "name": "diagnosis",
      "outputs": [],
      "stateMutability": "nonpayable",
      "type": "function"
    }
  ],
  "bytecode": "0x608060405234801561001057600080fd5b50336000806101000a81548173ffffffffffffffffffffffffffffffffffffffff021916908373ffffffffffffffffffffffffffffffffffffffff160217905550611733806100606000396000f3fe608060405234801561001057600080fd5b506004361061007c5760003560e01c8063a63e23b61161005b578063a63e23b6146100e9578063acaf645614610105578063df57f72214610121578063ea25965c1461013d5761007c565b806240cb55146100815780632ba665e51461009d5780634c388477146100cd575b600080fd5b61009b60048036038101906100969190610e1d565b61016d565b005b6100b760048036038101906100b29190610eec565b61027e565b6040516100c4919061109e565b60405180910390f35b6100e760048036038101906100e291906110ec565b61063d565b005b61010360048036038101906100fe919061112c565b6106fd565b005b61011f600480360381019061011a9190611188565b610760565b005b61013b600480360381019061013691906112b5565b61091d565b005b610157600480360381019061015291906112e2565b6109ee565b6040516101649190611426565b60405180910390f35b600115156001600086815260200190815260200160002060070160009054906101000a900460ff161515146101a157600080fd5b60006040518060a001604052808781526020018681526020018581526020018481526020018381525090506004600087815260200190815260200160002081908060018154018082558091505060019003906000526020600020906005020160009091909190915060008201518160000155602082015181600101556040820151816002019080519060200190610239929190610ba3565b506060820151816003019080519060200190610256929190610ba3565b506080820151816004019080519060200190610273929190610ba3565b505050505050505050565b610286610c29565b6001600083815260200190815260200160002060405180610100016040529081600082015481526020016001820180546102bf90611470565b80601f01602080910402602001604051908101604052809291908181526020018280546102eb90611470565b80156103385780601f1061030d57610100808354040283529160200191610338565b820191906000526020600020905b81548152906001019060200180831161031b57829003601f168201915b5050505050815260200160028201805461035190611470565b80601f016020809104026020016040519081016040528092919081815260200182805461037d90611470565b80156103ca5780601f1061039f576101008083540402835291602001916103ca565b820191906000526020600020905b8154815290600101906020018083116103ad57829003601f168201915b505050505081526020016003820180546103e390611470565b80601f016020809104026020016040519081016040528092919081815260200182805461040f90611470565b801561045c5780601f106104315761010080835404028352916020019161045c565b820191906000526020600020905b81548152906001019060200180831161043f57829003601f168201915b5050505050815260200160048201805461047590611470565b80601f01602080910402602001604051908101604052809291908181526020018280546104a190611470565b80156104ee5780601f106104c3576101008083540402835291602001916104ee565b820191906000526020600020905b8154815290600101906020018083116104d157829003601f168201915b5050505050815260200160058201805461050790611470565b80601f016020809104026020016040519081016040528092919081815260200182805461053390611470565b80156105805780601f1061055557610100808354040283529160200191610580565b820191906000526020600020905b81548152906001019060200180831161056357829003601f168201915b5050505050815260200160068201805461059990611470565b80601f01602080910402602001604051908101604052809291908181526020018280546105c590611470565b80156106125780601f106105e757610100808354040283529160200191610612565b820191906000526020600020905b8154815290600101906020018083116105f557829003601f168201915b505050505081526020016007820160009054906101000a900460ff1615151515815250509050919050565b60008054906101000a900473ffffffffffffffffffffffffffffffffffffffff1673ffffffffffffffffffffffffffffffffffffffff163373ffffffffffffffffffffffffffffffffffffffff16146106cb576040517f08c379a00000000000000000000000000000000000000000000000000000000081526004016106c2906114fe565b60405180910390fd5b816001600083815260200190815260200160002060070160006101000a81548160ff0219169083151502179055505050565b600115156001600084815260200190815260200160002060070160009054906101000a900460ff1615151461073157600080fd5b8060026000848152602001908152602001600020600101908051906020019061075b929190610ba3565b505050565b60008054906101000a900473ffffffffffffffffffffffffffffffffffffffff1673ffffffffffffffffffffffffffffffffffffffff163373ffffffffffffffffffffffffffffffffffffffff16146107ee576040517f08c379a00000000000000000000000000000000000000000000000000000000081526004016107e5906114fe565b60405180910390fd5b60006402540be4008642868560405160200161080d949392919061157b565b6040516020818303038152906040528051906020012060001c61083091906115f0565b90506040518060a0016040528087815260200186815260200185815260200184815260200183815250600360008381526020019081526020016000206000820151816000019080519060200190610888929190610ba3565b5060208201518160010190805190602001906108a5929190610ba3565b50604082015181600201556060820151816003015560808201518160040190805190602001906108d6929190610ba3565b509050507fb85f4202d8d52424296b7c803c019cea36684b20ea75eacfc36303e48985ea7881878560405161090d9392919061165a565b60405180910390a1505050505050565b60008054906101000a900473ffffffffffffffffffffffffffffffffffffffff1673ffffffffffffffffffffffffffffffffffffffff163373ffffffffffffffffffffffffffffffffffffffff16146109ab576040517f08c379a00000000000000000000000000000000000000000000000000000000081526004016109a2906114fe565b60405180910390fd5b806000806101000a81548173ffffffffffffffffffffffffffffffffffffffff021916908373ffffffffffffffffffffffffffffffffffffffff16021790555050565b6000806402540be400884286604051602001610a0c93929190611698565b6040516020818303038152906040528051906020012060001c610a2f91906115f0565b90506040518061010001604052808281526020018981526020018881526020018781526020018681526020018581526020018481526020016000151581525060016000838152602001908152602001600020600082015181600001556020820151816001019080519060200190610aa7929190610ba3565b506040820151816002019080519060200190610ac4929190610ba3565b506060820151816003019080519060200190610ae1929190610ba3565b506080820151816004019080519060200190610afe929190610ba3565b5060a0820151816005019080519060200190610b1b929190610ba3565b5060c0820151816006019080519060200190610b38929190610ba3565b5060e08201518160070160006101000a81548160ff0219169083151502179055509050507f9199b21b76d3529db49ec11d94cce931482cce89c0e846a44881995395b8a4a58189604051610b8d9291906116cd565b60405180910390a1809150509695505050505050565b828054610baf90611470565b90600052602060002090601f016020900481019282610bd15760008555610c18565b82601f10610bea57805160ff1916838001178555610c18565b82800160010185558215610c18579182015b82811115610c17578251825591602001919060010190610bfc565b5b509050610c259190610c70565b5090565b604051806101000160405280600081526020016060815260200160608152602001606081526020016060815260200160608152602001606081526020016000151581525090565b5b80821115610c89576000816000905550600101610c71565b5090565b6000604051905090565b600080fd5b600080fd5b6000819050919050565b610cb481610ca1565b8114610cbf57600080fd5b50565b600081359050610cd181610cab565b92915050565b600080fd5b600080fd5b6000601f19601f8301169050919050565b7f4e487b7100000000000000000000000000000000000000000000000000000000600052604160045260246000fd5b610d2a82610ce1565b810181811067ffffffffffffffff82111715610d4957610d48610cf2565b5b80604052505050565b6000610d5c610c8d565b9050610d688282610d21565b919050565b600067ffffffffffffffff821115610d8857610d87610cf2565b5b610d9182610ce1565b9050602081019050919050565b82818337600083830152505050565b6000610dc0610dbb84610d6d565b610d52565b905082815260208101848484011115610ddc57610ddb610cdc565b5b610de7848285610d9e565b509392505050565b600082601f830112610e0457610e03610cd7565b5b8135610e14848260208601610dad565b91505092915050565b600080600080600060a08688031215610e3957610e38610c97565b5b6000610e4788828901610cc2565b9550506020610e5888828901610cc2565b945050604086013567ffffffffffffffff811115610e7957610e78610c9c565b5b610e8588828901610def565b935050606086013567ffffffffffffffff811115610ea657610ea5610c9c565b5b610eb288828901610def565b925050608086013567ffffffffffffffff811115610ed357610ed2610c9c565b5b610edf88828901610def565b9150509295509295909350565b600060208284031215610f0257610f01610c97565b5b6000610f1084828501610cc2565b91505092915050565b610f2281610ca1565b82525050565b600081519050919050565b600082825260208201905092915050565b60005b83811015610f62578082015181840152602081019050610f47565b83811115610f71576000848401525b50505050565b6000610f8282610f28565b610f8c8185610f33565b9350610f9c818560208601610f44565b610fa581610ce1565b840191505092915050565b60008115159050919050565b610fc581610fb0565b82525050565b600061010083016000830151610fe46000860182610f19565b5060208301518482036020860152610ffc8282610f77565b915050604083015184820360408601526110168282610f77565b915050606083015184820360608601526110308282610f77565b9150506080830151848203608086015261104a8282610f77565b91505060a083015184820360a08601526110648282610f77565b91505060c083015184820360c086015261107e8282610f77565b91505060e083015161109360e0860182610fbc565b508091505092915050565b600060208201905081810360008301526110b88184610fcb565b905092915050565b6110c981610fb0565b81146110d457600080fd5b50565b6000813590506110e6816110c0565b92915050565b6000806040838503121561110357611102610c97565b5b6000611111858286016110d7565b925050602061112285828601610cc2565b9150509250929050565b6000806040838503121561114357611142610c97565b5b600061115185828601610cc2565b925050602083013567ffffffffffffffff81111561117257611171610c9c565b5b61117e85828601610def565b9150509250929050565b600080600080600060a086880312156111a4576111a3610c97565b5b600086013567ffffffffffffffff8111156111c2576111c1610c9c565b5b6111ce88828901610def565b955050602086013567ffffffffffffffff8111156111ef576111ee610c9c565b5b6111fb88828901610def565b945050604061120c88828901610cc2565b935050606061121d88828901610cc2565b925050608086013567ffffffffffffffff81111561123e5761123d610c9c565b5b61124a88828901610def565b9150509295509295909350565b600073ffffffffffffffffffffffffffffffffffffffff82169050919050565b600061128282611257565b9050919050565b61129281611277565b811461129d57600080fd5b50565b6000813590506112af81611289565b92915050565b6000602082840312156112cb576112ca610c97565b5b60006112d9848285016112a0565b91505092915050565b60008060008060008060c087890312156112ff576112fe610c97565b5b600087013567ffffffffffffffff81111561131d5761131c610c9c565b5b61132989828a01610def565b965050602087013567ffffffffffffffff81111561134a57611349610c9c565b5b61135689828a01610def565b955050604087013567ffffffffffffffff81111561137757611376610c9c565b5b61138389828a01610def565b945050606087013567ffffffffffffffff8111156113a4576113a3610c9c565b5b6113b089828a01610def565b935050608087013567ffffffffffffffff8111156113d1576113d0610c9c565b5b6113dd89828a01610def565b92505060a087013567ffffffffffffffff8111156113fe576113fd610c9c565b5b61140a89828a01610def565b9150509295509295509295565b61142081610ca1565b82525050565b600060208201905061143b6000830184611417565b92915050565b7f4e487b7100000000000000000000000000000000000000000000000000000000600052602260045260246000fd5b6000600282049050600182168061148857607f821691505b60208210810361149b5761149a611441565b5b50919050565b600082825260208201905092915050565b7f43616c6c6572206973206e6f74206f776e657200000000000000000000000000600082015250565b60006114e86013836114a1565b91506114f3826114b2565b602082019050919050565b60006020820190508181036000830152611517816114db565b9050919050565b600081905092915050565b600061153482610f28565b61153e818561151e565b935061154e818560208601610f44565b80840191505092915050565b6000819050919050565b61157561157082610ca1565b61155a565b82525050565b60006115878287611529565b91506115938286611564565b6020820191506115a38285611564565b6020820191506115b38284611529565b915081905095945050505050565b7f4e487b7100000000000000000000000000000000000000000000000000000000600052601260045260246000fd5b60006115fb82610ca1565b915061160683610ca1565b925082611616576116156115c1565b5b828206905092915050565b600061162c82610f28565b61163681856114a1565b9350611646818560208601610f44565b61164f81610ce1565b840191505092915050565b600060608201905061166f6000830186611417565b81810360208301526116818185611621565b90506116906040830184611417565b949350505050565b60006116a48286611529565b91506116b08285611564565b6020820191506116c08284611529565b9150819050949350505050565b60006040820190506116e26000830185611417565b81810360208301526116f48184611621565b9050939250505056fea2646970667358221220484e686b6ac5c58f78b2f1f3885334638d3d14fdf111c80339dbb8ad831fa93f64736f6c634300080d0033",
  "immutableReferences": {},
  "source": "\n//SPDX-License-Identifier: MIT\n\npragma solidity ^0.8.10;\n\n\ncontract Medical\n{\n\n    //address of the owner\n    address private owner;\n\n    constructor()\n    {\n        owner=msg.sender;\n    }\n\n//struct for register doctor\n    struct RegDoc\n    {\n        uint256 id;\n        string name;\n        string _gender;\n        string _category;\n        string post;\n        string discipline;\n        string stateCouncil;\n        bool isVerified;\n\n    }\n//struct for setpassword\n    struct pwdDoc\n    {\n        uint256 id;\n        string pass;\n    }\n//mapped uint256 to struct RegDoc\n    mapping (uint256 => RegDoc) doctors;\n//mapped uint256 to struct pwdDoc    \n    mapping (uint256 => pwdDoc) passwords;\n    modifier isVerifier() {\n        require(msg.sender == owner, \"Caller is not owner\");\n        _;\n    }\n    //struct for register patient\n    struct Regpatient\n    {\n        string name;\n        string _gender;\n        uint dob;\n        uint age;\n        string blood;\n    }\n    // struct for define checkup\n    struct Diagnosis\n    {\n        uint256 patientid;\n        uint256 docid;\n        string name0fdise;\n        string others;\n        string medicine;\n    }\n   //mapped uint256 to struct Regpatient\n    mapping (uint256 => Regpatient) patients;\n    //mapped uin256 to struct Diagnosis\n    mapping (uint256 => Diagnosis[]) listOfdiagosis;\n    //events\n    event regid(uint256 ,string );\n    event regpat_id(uint256 ,string,uint256 );\n/*\n@dev setnewAdmin setting new admin\n@param admin\n*/\n    function setnewAdmin(address admin)public isVerifier\n    {\n        owner=admin;\n    }\n    /*\n    @dev Regdoc -Registeration of doctor,by doctor\n    @param name,gender,category,post,discipline,statecouncil\n    //id creation\n    //registrration using id\n    //emit regpat_id(id,name)\n\n    */\n\n    function Regdoc(string memory name,string memory _gender,string memory _category,string memory post,string memory discipline,string memory stateCouncil)public returns (uint256)\n    {\n        uint id= uint(keccak256(abi.encodePacked(name,block.timestamp,discipline)))%10000000000;\n\n        doctors[id] =RegDoc(id,name,_gender,_category,post,discipline,stateCouncil,false);\n        emit regid(id,name);\n\n        return id;\n\n    }\n/*\n@dev verifyDoctor\n@param verifiedstatus,id\n//verification only  by verifier\n*/\n    function verifyDoctor(bool _verifedStatus, uint256 id) public isVerifier\n    {\n        doctors[id].isVerified = _verifedStatus;\n    }\n\n/*\n@dev getDoc returns doctor details\n@param id \n*/    function getDoc(uint256 id) public view  returns (RegDoc memory)\n    {\n        return doctors[id];\n    }\n/*\n@dev setpassword verified doctor can set password\n@param id ,password\n*/ \n    function setpassword(uint256 id,string memory password)public \n    {\n        require(doctors[id].isVerified == true);\n        passwords[id].pass=password;\n    }\n/*\n@dev Regpatit :registeration if patient \n@param name,gender,dob,age,bood\n//id generation\n//emit regpat_id(id,name,age)\n\n*/\n    function Regpatit(string memory name,string memory _gender,uint256 dob,uint256 age,string memory blood) public isVerifier\n    {\n    uint id= uint(keccak256(abi.encodePacked(name,block.timestamp,dob,blood)))%10000000000;\n    patients[id] =Regpatient(name,_gender,dob,age,blood);\n    emit regpat_id(id,name,age);\n    }\n\n/*\n@dev diagnosis \n@param patientid,docid,nameofdise,others,medicine\n//only verified doctor can check patient data or update\n*/\n\n    function diagnosis(uint256 patientid,uint256 docid,string memory name0fdise,string memory others,string memory medicine)public{\n    require(doctors[docid].isVerified == true);\n    Diagnosis memory diagnos=Diagnosis(patientid,docid,name0fdise,others,medicine);\n\n    listOfdiagosis[patientid].push(diagnos);\n    }\n\n//    function getPatient(uint256 id) public pure  returns (uidiant256 patientid,uint256 docid,string memory name0fdise,string memory others,string memory medicine)\n//     {\n//         return (listOfdiagosis[id].patientid,listOfdiagosis[id].docid,listOfdiagosis[id].name0fdise,listOfdiagosis[id].others,listOfdiagosis[id].medicine);\n//     }\n\n\n\n}",
  "sourcePath": "/home/user/Desktop/PROJECT/contracts/Medical.sol",
  "compiler": {
    "name": "solc",
    "version": "0.8.13+commit.abaa5c0e.Emscripten.clang"
  },
  "schemaVersion": "3.4.6",
  "updatedAt": "2022-09-25T10:18:38.745Z",
  "networkType": "ethereum",
  "devdoc": {
    "kind": "dev",
    "methods": {},
    "version": 1
  },
  "userdoc": {
    "kind": "user",
    "methods": {},
    "version": 1
  }
}